{
  "address": "0xb7403174d3325C3aD6B4576E10F85c2b63e68cF8",
  "abi": [
    {
      "inputs": [
        {
          "internalType": "address",
          "name": "_judge",
          "type": "address"
        }
      ],
      "stateMutability": "nonpayable",
      "type": "constructor"
    },
    {
      "inputs": [],
      "name": "AgreementLocked",
      "type": "error"
    },
    {
      "inputs": [],
      "name": "AgreementNotLocked",
      "type": "error"
    },
    {
      "inputs": [],
      "name": "InsufficientPayment",
      "type": "error"
    },
    {
      "inputs": [],
      "name": "NoPendingResolution",
      "type": "error"
    },
    {
      "inputs": [],
      "name": "NotABuyer",
      "type": "error"
    },
    {
      "inputs": [],
      "name": "NotAJudge",
      "type": "error"
    },
    {
      "inputs": [],
      "name": "NotAParticipant",
      "type": "error"
    },
    {
      "inputs": [],
      "name": "NotASeller",
      "type": "error"
    },
    {
      "inputs": [],
      "name": "NotSameBuyerAndSeller",
      "type": "error"
    },
    {
      "inputs": [],
      "name": "TransferFailed",
      "type": "error"
    },
    {
      "anonymous": false,
      "inputs": [
        {
          "indexed": false,
          "internalType": "uint256",
          "name": "agreementId",
          "type": "uint256"
        }
      ],
      "name": "AgreementConfirmed",
      "type": "event"
    },
    {
      "anonymous": false,
      "inputs": [
        {
          "indexed": false,
          "internalType": "uint256",
          "name": "agreementId",
          "type": "uint256"
        },
        {
          "indexed": true,
          "internalType": "address",
          "name": "buyer",
          "type": "address"
        },
        {
          "indexed": true,
          "internalType": "address",
          "name": "seller",
          "type": "address"
        },
        {
          "indexed": false,
          "internalType": "uint256",
          "name": "value",
          "type": "uint256"
        },
        {
          "indexed": false,
          "internalType": "address",
          "name": "tokenAddress",
          "type": "address"
        }
      ],
      "name": "AgreementCreated",
      "type": "event"
    },
    {
      "anonymous": false,
      "inputs": [
        {
          "indexed": false,
          "internalType": "uint256",
          "name": "agreementId",
          "type": "uint256"
        }
      ],
      "name": "BuyerRejectedReceipt",
      "type": "event"
    },
    {
      "anonymous": false,
      "inputs": [
        {
          "indexed": false,
          "internalType": "uint256",
          "name": "agreementId",
          "type": "uint256"
        },
        {
          "indexed": false,
          "internalType": "bool",
          "name": "inFavorOfBuyer",
          "type": "bool"
        }
      ],
      "name": "DecisionExecuted",
      "type": "event"
    },
    {
      "anonymous": false,
      "inputs": [
        {
          "indexed": false,
          "internalType": "uint256",
          "name": "agreementId",
          "type": "uint256"
        },
        {
          "indexed": false,
          "internalType": "bytes",
          "name": "evidenceCID",
          "type": "bytes"
        }
      ],
      "name": "EvidenceAdded",
      "type": "event"
    },
    {
      "anonymous": false,
      "inputs": [
        {
          "indexed": false,
          "internalType": "uint256",
          "name": "agreementId",
          "type": "uint256"
        }
      ],
      "name": "FundsReclaimed",
      "type": "event"
    },
    {
      "anonymous": false,
      "inputs": [
        {
          "indexed": false,
          "internalType": "uint256",
          "name": "agreementId",
          "type": "uint256"
        }
      ],
      "name": "ReceiptConfirmed",
      "type": "event"
    },
    {
      "inputs": [
        {
          "internalType": "uint256",
          "name": "agreementId",
          "type": "uint256"
        },
        {
          "internalType": "bytes",
          "name": "evidenceCID",
          "type": "bytes"
        }
      ],
      "name": "addEvidence",
      "outputs": [],
      "stateMutability": "nonpayable",
      "type": "function"
    },
    {
      "inputs": [
        {
          "internalType": "address",
          "name": "",
          "type": "address"
        },
        {
          "internalType": "uint256",
          "name": "",
          "type": "uint256"
        }
      ],
      "name": "agreementIdsByParticipant",
      "outputs": [
        {
          "internalType": "uint256",
          "name": "",
          "type": "uint256"
        }
      ],
      "stateMutability": "view",
      "type": "function"
    },
    {
      "inputs": [
        {
          "internalType": "uint256",
          "name": "agreementId",
          "type": "uint256"
        }
      ],
      "name": "agreementIsLocked",
      "outputs": [
        {
          "internalType": "bool",
          "name": "",
          "type": "bool"
        }
      ],
      "stateMutability": "view",
      "type": "function"
    },
    {
      "inputs": [
        {
          "internalType": "uint256",
          "name": "",
          "type": "uint256"
        }
      ],
      "name": "agreements",
      "outputs": [
        {
          "internalType": "address payable",
          "name": "buyer",
          "type": "address"
        },
        {
          "internalType": "address payable",
          "name": "seller",
          "type": "address"
        },
        {
          "internalType": "uint256",
          "name": "value",
          "type": "uint256"
        },
        {
          "internalType": "address",
          "name": "tokenAddress",
          "type": "address"
        },
        {
          "internalType": "bool",
          "name": "sellerConfirmedAgreement",
          "type": "bool"
        },
        {
          "internalType": "enum EscrowContract.Status",
          "name": "status",
          "type": "uint8"
        },
        {
          "internalType": "bytes",
          "name": "evidenceCID",
          "type": "bytes"
        }
      ],
      "stateMutability": "view",
      "type": "function"
    },
    {
      "inputs": [
        {
          "internalType": "uint256",
          "name": "agreementId",
          "type": "uint256"
        }
      ],
      "name": "buyerReclaims",
      "outputs": [],
      "stateMutability": "nonpayable",
      "type": "function"
    },
    {
      "inputs": [
        {
          "internalType": "uint256",
          "name": "agreementId",
          "type": "uint256"
        }
      ],
      "name": "buyerRejectsReceipt",
      "outputs": [],
      "stateMutability": "nonpayable",
      "type": "function"
    },
    {
      "inputs": [
        {
          "internalType": "uint256",
          "name": "agreementId",
          "type": "uint256"
        }
      ],
      "name": "confirmReceived",
      "outputs": [],
      "stateMutability": "nonpayable",
      "type": "function"
    },
    {
      "inputs": [
        {
          "internalType": "address payable",
          "name": "buyer",
          "type": "address"
        },
        {
          "internalType": "address payable",
          "name": "seller",
          "type": "address"
        },
        {
          "internalType": "uint256",
          "name": "value",
          "type": "uint256"
        },
        {
          "internalType": "address",
          "name": "tokenAddress",
          "type": "address"
        }
      ],
      "name": "createAgreement",
      "outputs": [],
      "stateMutability": "payable",
      "type": "function"
    },
    {
      "inputs": [
        {
          "internalType": "uint256",
          "name": "agreementId",
          "type": "uint256"
        },
        {
          "internalType": "bool",
          "name": "inFavorOfBuyer",
          "type": "bool"
        }
      ],
      "name": "executeDecision",
      "outputs": [],
      "stateMutability": "nonpayable",
      "type": "function"
    },
    {
      "inputs": [],
      "name": "judge",
      "outputs": [
        {
          "internalType": "address",
          "name": "",
          "type": "address"
        }
      ],
      "stateMutability": "view",
      "type": "function"
    },
    {
      "inputs": [],
      "name": "numAgreements",
      "outputs": [
        {
          "internalType": "uint256",
          "name": "",
          "type": "uint256"
        }
      ],
      "stateMutability": "view",
      "type": "function"
    },
    {
      "inputs": [
        {
          "internalType": "uint256",
          "name": "agreementId",
          "type": "uint256"
        }
      ],
      "name": "sellerConfirmsAgreement",
      "outputs": [],
      "stateMutability": "nonpayable",
      "type": "function"
    }
  ],
  "transactionHash": "0xe488e2395415f6f0d45ce59bf352e35d0e20114d077eb7c6d36d0ba67af9cd29",
  "args": [
    "0xBC3F74CECF1fA8270A6FAE935e974a5a9570D054"
  ],
  "numDeployments": 1,
  "solcInputHash": "19597f6e0ca6201adca0ea56e1e7cd74",
  "bytecode": "0x60806040526001600260006101000a81548173ffffffffffffffffffffffffffffffffffffffff021916908373ffffffffffffffffffffffffffffffffffffffff1602179055503480156200005357600080fd5b506040516200296a3803806200296a83398181016040528101906200007991906200012b565b80600160006101000a81548173ffffffffffffffffffffffffffffffffffffffff021916908373ffffffffffffffffffffffffffffffffffffffff160217905550506200015d565b600080fd5b600073ffffffffffffffffffffffffffffffffffffffff82169050919050565b6000620000f382620000c6565b9050919050565b6200010581620000e6565b81146200011157600080fd5b50565b6000815190506200012581620000fa565b92915050565b600060208284031215620001445762000143620000c1565b5b6000620001548482850162000114565b91505092915050565b6127fd806200016d6000396000f3fe6080604052600436106100a75760003560e01c8063573255f411610064578063573255f4146101b85780637ae169b7146101e35780638d30b29714610220578063a9b5b86a1461023c578063bd14de9614610265578063db1c7bab146102a8576100a7565b8063041635e0146100ac57806324d46dc1146100d557806327dac36d1461010057806337ac3d9e146101295780634ea342ab1461015257806355ed6be61461018f575b600080fd5b3480156100b857600080fd5b506100d360048036038101906100ce9190611d0a565b6102d1565b005b3480156100e157600080fd5b506100ea61085e565b6040516100f79190611d59565b60405180910390f35b34801561010c57600080fd5b5061012760048036038101906101229190611d74565b610864565b005b34801561013557600080fd5b50610150600480360381019061014b9190611d74565b610bc6565b005b34801561015e57600080fd5b5061017960048036038101906101749190611d74565b610f42565b6040516101869190611db0565b60405180910390f35b34801561019b57600080fd5b506101b660048036038101906101b19190611d74565b611166565b005b3480156101c457600080fd5b506101cd61125e565b6040516101da9190611e0c565b60405180910390f35b3480156101ef57600080fd5b5061020a60048036038101906102059190611e53565b611284565b6040516102179190611d59565b60405180910390f35b61023a60048036038101906102359190611ed1565b6112b5565b005b34801561024857600080fd5b50610263600480360381019061025e9190611d74565b6118ee565b005b34801561027157600080fd5b5061028c60048036038101906102879190611d74565b6119f6565b60405161029f979695949392919061204e565b60405180910390f35b3480156102b457600080fd5b506102cf60048036038101906102ca91906121f9565b611b3a565b005b6000600360008481526020019081526020016000209050600160009054906101000a900473ffffffffffffffffffffffffffffffffffffffff1673ffffffffffffffffffffffffffffffffffffffff163373ffffffffffffffffffffffffffffffffffffffff161461036f576040517f34d83fc100000000000000000000000000000000000000000000000000000000815260040160405180910390fd5b6002600581111561038357610382611f47565b5b8160030160159054906101000a900460ff1660058111156103a7576103a6611f47565b5b146103de576040517fe85bd1c800000000000000000000000000000000000000000000000000000000815260040160405180910390fd5b816103ea5760046103ed565b60035b8160030160156101000a81548160ff0219169083600581111561041357610412611f47565b5b02179055506000821561060657600260009054906101000a900473ffffffffffffffffffffffffffffffffffffffff1673ffffffffffffffffffffffffffffffffffffffff168260030160009054906101000a900473ffffffffffffffffffffffffffffffffffffffff1673ffffffffffffffffffffffffffffffffffffffff1603610532578160000160009054906101000a900473ffffffffffffffffffffffffffffffffffffffff1673ffffffffffffffffffffffffffffffffffffffff1682600201546040516104e590612286565b60006040518083038185875af1925050503d8060008114610522576040519150601f19603f3d011682016040523d82523d6000602084013e610527565b606091505b505080915050610601565b8160030160009054906101000a900473ffffffffffffffffffffffffffffffffffffffff1673ffffffffffffffffffffffffffffffffffffffff166323b872dd308460000160009054906101000a900473ffffffffffffffffffffffffffffffffffffffff1685600201546040518463ffffffff1660e01b81526004016105bb939291906122fa565b6020604051808303816000875af11580156105da573d6000803e3d6000fd5b505050506040513d601f19601f820116820180604052508101906105fe9190612346565b90505b6107e8565b600260009054906101000a900473ffffffffffffffffffffffffffffffffffffffff1673ffffffffffffffffffffffffffffffffffffffff168260030160009054906101000a900473ffffffffffffffffffffffffffffffffffffffff1673ffffffffffffffffffffffffffffffffffffffff1603610718578160010160009054906101000a900473ffffffffffffffffffffffffffffffffffffffff1673ffffffffffffffffffffffffffffffffffffffff1682600201546040516106cb90612286565b60006040518083038185875af1925050503d8060008114610708576040519150601f19603f3d011682016040523d82523d6000602084013e61070d565b606091505b5050809150506107e7565b8160030160009054906101000a900473ffffffffffffffffffffffffffffffffffffffff1673ffffffffffffffffffffffffffffffffffffffff166323b872dd308460010160009054906101000a900473ffffffffffffffffffffffffffffffffffffffff1685600201546040518463ffffffff1660e01b81526004016107a1939291906122fa565b6020604051808303816000875af11580156107c0573d6000803e3d6000fd5b505050506040513d601f19601f820116820180604052508101906107e49190612346565b90505b5b8061081f576040517f90b8ec1800000000000000000000000000000000000000000000000000000000815260040160405180910390fd5b7f28122ca6dfc3042708a6ff54619e90e9a38047da35fcf5a8ac4e84cc3716e4a58484604051610850929190612373565b60405180910390a150505050565b60005481565b60006003600083815260200190815260200160002090508060000160009054906101000a900473ffffffffffffffffffffffffffffffffffffffff1673ffffffffffffffffffffffffffffffffffffffff163373ffffffffffffffffffffffffffffffffffffffff1614610904576040517ffe7a9eab00000000000000000000000000000000000000000000000000000000815260040160405180910390fd5b61090d82610f42565b610943576040517f2398b84700000000000000000000000000000000000000000000000000000000815260040160405180910390fd5b60058160030160156101000a81548160ff0219169083600581111561096b5761096a611f47565b5b02179055506000600260009054906101000a900473ffffffffffffffffffffffffffffffffffffffff1673ffffffffffffffffffffffffffffffffffffffff168260030160009054906101000a900473ffffffffffffffffffffffffffffffffffffffff1673ffffffffffffffffffffffffffffffffffffffff1603610a84578160010160009054906101000a900473ffffffffffffffffffffffffffffffffffffffff1673ffffffffffffffffffffffffffffffffffffffff168260020154604051610a3790612286565b60006040518083038185875af1925050503d8060008114610a74576040519150601f19603f3d011682016040523d82523d6000602084013e610a79565b606091505b505080915050610b53565b8160030160009054906101000a900473ffffffffffffffffffffffffffffffffffffffff1673ffffffffffffffffffffffffffffffffffffffff166323b872dd308460010160009054906101000a900473ffffffffffffffffffffffffffffffffffffffff1685600201546040518463ffffffff1660e01b8152600401610b0d939291906122fa565b6020604051808303816000875af1158015610b2c573d6000803e3d6000fd5b505050506040513d601f19601f82011682018060405250810190610b509190612346565b90505b80610b8a576040517f90b8ec1800000000000000000000000000000000000000000000000000000000815260040160405180910390fd5b7f900a2104c9fe6d9ec7b20dc2b6f3a623600abd02751b4c5dcc71d5aa4764c4ac83604051610bb99190611d59565b60405180910390a1505050565b60006003600083815260200190815260200160002090508060000160009054906101000a900473ffffffffffffffffffffffffffffffffffffffff1673ffffffffffffffffffffffffffffffffffffffff163373ffffffffffffffffffffffffffffffffffffffff1614610c66576040517ffe7a9eab00000000000000000000000000000000000000000000000000000000815260040160405180910390fd5b610c6f82610f42565b80610c8857508060030160149054906101000a900460ff165b15610cbf576040517f8f684ec400000000000000000000000000000000000000000000000000000000815260040160405180910390fd5b6000600260009054906101000a900473ffffffffffffffffffffffffffffffffffffffff1673ffffffffffffffffffffffffffffffffffffffff168260030160009054906101000a900473ffffffffffffffffffffffffffffffffffffffff1673ffffffffffffffffffffffffffffffffffffffff1603610dd3578160000160009054906101000a900473ffffffffffffffffffffffffffffffffffffffff1673ffffffffffffffffffffffffffffffffffffffff168260020154604051610d8690612286565b60006040518083038185875af1925050503d8060008114610dc3576040519150601f19603f3d011682016040523d82523d6000602084013e610dc8565b606091505b505080915050610ea2565b8160030160009054906101000a900473ffffffffffffffffffffffffffffffffffffffff1673ffffffffffffffffffffffffffffffffffffffff166323b872dd308460000160009054906101000a900473ffffffffffffffffffffffffffffffffffffffff1685600201546040518463ffffffff1660e01b8152600401610e5c939291906122fa565b6020604051808303816000875af1158015610e7b573d6000803e3d6000fd5b505050506040513d601f19601f82011682018060405250810190610e9f9190612346565b90505b80610ed9576040517f90b8ec1800000000000000000000000000000000000000000000000000000000815260040160405180910390fd5b60018260030160156101000a81548160ff02191690836005811115610f0157610f00611f47565b5b02179055507f6246f936423733335c7889317bcefc2fe71363b2b87691f815e8367851010f2e83604051610f359190611d59565b60405180910390a1505050565b600080600360008481526020019081526020016000206040518060e00160405290816000820160009054906101000a900473ffffffffffffffffffffffffffffffffffffffff1673ffffffffffffffffffffffffffffffffffffffff1673ffffffffffffffffffffffffffffffffffffffff1681526020016001820160009054906101000a900473ffffffffffffffffffffffffffffffffffffffff1673ffffffffffffffffffffffffffffffffffffffff1673ffffffffffffffffffffffffffffffffffffffff168152602001600282015481526020016003820160009054906101000a900473ffffffffffffffffffffffffffffffffffffffff1673ffffffffffffffffffffffffffffffffffffffff1673ffffffffffffffffffffffffffffffffffffffff1681526020016003820160149054906101000a900460ff161515151581526020016003820160159054906101000a900460ff1660058111156110af576110ae611f47565b5b60058111156110c1576110c0611f47565b5b81526020016004820180546110d5906123cb565b80601f0160208091040260200160405190810160405280929190818152602001828054611101906123cb565b801561114e5780601f106111235761010080835404028352916020019161114e565b820191906000526020600020905b81548152906001019060200180831161113157829003601f168201915b50505050508152505090508060800151915050919050565b60006003600083815260200190815260200160002090508060010160009054906101000a900473ffffffffffffffffffffffffffffffffffffffff1673ffffffffffffffffffffffffffffffffffffffff163373ffffffffffffffffffffffffffffffffffffffff1614611206576040517ffd75e33d00000000000000000000000000000000000000000000000000000000815260040160405180910390fd5b60018160030160146101000a81548160ff0219169083151502179055507f586f0ab5ab4951d2353ccca33fe31a4c0369ef4b0fb8062c9319712a404d6643826040516112529190611d59565b60405180910390a15050565b600160009054906101000a900473ffffffffffffffffffffffffffffffffffffffff1681565b600460205281600052604060002081815481106112a057600080fd5b90600052602060002001600091509150505481565b8373ffffffffffffffffffffffffffffffffffffffff163373ffffffffffffffffffffffffffffffffffffffff161461131a576040517ffe7a9eab00000000000000000000000000000000000000000000000000000000815260040160405180910390fd5b8273ffffffffffffffffffffffffffffffffffffffff163373ffffffffffffffffffffffffffffffffffffffff160361137f576040517f283c739900000000000000000000000000000000000000000000000000000000815260040160405180910390fd5b600260009054906101000a900473ffffffffffffffffffffffffffffffffffffffff1673ffffffffffffffffffffffffffffffffffffffff168173ffffffffffffffffffffffffffffffffffffffff161480156113dc5750813414155b15611413576040517fcd1c886700000000000000000000000000000000000000000000000000000000815260040160405180910390fd5b600260009054906101000a900473ffffffffffffffffffffffffffffffffffffffff1673ffffffffffffffffffffffffffffffffffffffff168173ffffffffffffffffffffffffffffffffffffffff161461159d578073ffffffffffffffffffffffffffffffffffffffff166323b872dd3330856040518463ffffffff1660e01b81526004016114a5939291906123fc565b6020604051808303816000875af11580156114c4573d6000803e3d6000fd5b505050506040513d601f19601f820116820180604052508101906114e89190612346565b50818173ffffffffffffffffffffffffffffffffffffffff166370a08231306040518263ffffffff1660e01b81526004016115239190611e0c565b602060405180830381865afa158015611540573d6000803e3d6000fd5b505050506040513d601f19601f820116820180604052508101906115649190612448565b101561159c576040517fcd1c886700000000000000000000000000000000000000000000000000000000815260040160405180910390fd5b5b60006040518060e001604052808673ffffffffffffffffffffffffffffffffffffffff1681526020018573ffffffffffffffffffffffffffffffffffffffff1681526020018481526020018373ffffffffffffffffffffffffffffffffffffffff1681526020016000151581526020016000600581111561162157611620611f47565b5b8152602001604051806020016040528060008152508152509050600080600081548092919061164f906124a4565b919050559050816003600083815260200190815260200160002060008201518160000160006101000a81548173ffffffffffffffffffffffffffffffffffffffff021916908373ffffffffffffffffffffffffffffffffffffffff16021790555060208201518160010160006101000a81548173ffffffffffffffffffffffffffffffffffffffff021916908373ffffffffffffffffffffffffffffffffffffffff1602179055506040820151816002015560608201518160030160006101000a81548173ffffffffffffffffffffffffffffffffffffffff021916908373ffffffffffffffffffffffffffffffffffffffff16021790555060808201518160030160146101000a81548160ff02191690831515021790555060a08201518160030160156101000a81548160ff0219169083600581111561179357611792611f47565b5b021790555060c08201518160040190816117ad919061268e565b50905050600460008773ffffffffffffffffffffffffffffffffffffffff1673ffffffffffffffffffffffffffffffffffffffff168152602001908152602001600020819080600181540180825580915050600190039060005260206000200160009091909190915055600460008673ffffffffffffffffffffffffffffffffffffffff1673ffffffffffffffffffffffffffffffffffffffff1681526020019081526020016000208190806001815401808255809150506001900390600052602060002001600090919091909150558473ffffffffffffffffffffffffffffffffffffffff168673ffffffffffffffffffffffffffffffffffffffff167f0c73c79e096f50541645465910102237c855a5979f3e3a5b95ec0323a86e27738387876040516118de93929190612760565b60405180910390a3505050505050565b60006003600083815260200190815260200160002090508060000160009054906101000a900473ffffffffffffffffffffffffffffffffffffffff1673ffffffffffffffffffffffffffffffffffffffff163373ffffffffffffffffffffffffffffffffffffffff161461198e576040517ffe7a9eab00000000000000000000000000000000000000000000000000000000815260040160405180910390fd5b60028160030160156101000a81548160ff021916908360058111156119b6576119b5611f47565b5b02179055507f445df36edc8e2748c3e5aca8b58b44b76c3ec3582f24d8ab628d98372303c827826040516119ea9190611d59565b60405180910390a15050565b60036020528060005260406000206000915090508060000160009054906101000a900473ffffffffffffffffffffffffffffffffffffffff16908060010160009054906101000a900473ffffffffffffffffffffffffffffffffffffffff16908060020154908060030160009054906101000a900473ffffffffffffffffffffffffffffffffffffffff16908060030160149054906101000a900460ff16908060030160159054906101000a900460ff1690806004018054611ab7906123cb565b80601f0160208091040260200160405190810160405280929190818152602001828054611ae3906123cb565b8015611b305780601f10611b0557610100808354040283529160200191611b30565b820191906000526020600020905b815481529060010190602001808311611b1357829003601f168201915b5050505050905087565b60006003600084815260200190815260200160002090508060000160009054906101000a900473ffffffffffffffffffffffffffffffffffffffff1673ffffffffffffffffffffffffffffffffffffffff163373ffffffffffffffffffffffffffffffffffffffff1614158015611c0157508060010160009054906101000a900473ffffffffffffffffffffffffffffffffffffffff1673ffffffffffffffffffffffffffffffffffffffff163373ffffffffffffffffffffffffffffffffffffffff1614155b15611c38576040517f179e806d00000000000000000000000000000000000000000000000000000000815260040160405180910390fd5b81816004019081611c49919061268e565b507f770c205c6ddbc7f96a5e1d0e72eb637292aab9021be37bf83daeb33c0fe1e61f8383604051611c7b929190612797565b60405180910390a1505050565b6000604051905090565b600080fd5b600080fd5b6000819050919050565b611caf81611c9c565b8114611cba57600080fd5b50565b600081359050611ccc81611ca6565b92915050565b60008115159050919050565b611ce781611cd2565b8114611cf257600080fd5b50565b600081359050611d0481611cde565b92915050565b60008060408385031215611d2157611d20611c92565b5b6000611d2f85828601611cbd565b9250506020611d4085828601611cf5565b9150509250929050565b611d5381611c9c565b82525050565b6000602082019050611d6e6000830184611d4a565b92915050565b600060208284031215611d8a57611d89611c92565b5b6000611d9884828501611cbd565b91505092915050565b611daa81611cd2565b82525050565b6000602082019050611dc56000830184611da1565b92915050565b600073ffffffffffffffffffffffffffffffffffffffff82169050919050565b6000611df682611dcb565b9050919050565b611e0681611deb565b82525050565b6000602082019050611e216000830184611dfd565b92915050565b611e3081611deb565b8114611e3b57600080fd5b50565b600081359050611e4d81611e27565b92915050565b60008060408385031215611e6a57611e69611c92565b5b6000611e7885828601611e3e565b9250506020611e8985828601611cbd565b9150509250929050565b6000611e9e82611dcb565b9050919050565b611eae81611e93565b8114611eb957600080fd5b50565b600081359050611ecb81611ea5565b92915050565b60008060008060808587031215611eeb57611eea611c92565b5b6000611ef987828801611ebc565b9450506020611f0a87828801611ebc565b9350506040611f1b87828801611cbd565b9250506060611f2c87828801611e3e565b91505092959194509250565b611f4181611e93565b82525050565b7f4e487b7100000000000000000000000000000000000000000000000000000000600052602160045260246000fd5b60068110611f8757611f86611f47565b5b50565b6000819050611f9882611f76565b919050565b6000611fa882611f8a565b9050919050565b611fb881611f9d565b82525050565b600081519050919050565b600082825260208201905092915050565b60005b83811015611ff8578082015181840152602081019050611fdd565b60008484015250505050565b6000601f19601f8301169050919050565b600061202082611fbe565b61202a8185611fc9565b935061203a818560208601611fda565b61204381612004565b840191505092915050565b600060e082019050612063600083018a611f38565b6120706020830189611f38565b61207d6040830188611d4a565b61208a6060830187611dfd565b6120976080830186611da1565b6120a460a0830185611faf565b81810360c08301526120b68184612015565b905098975050505050505050565b600080fd5b600080fd5b7f4e487b7100000000000000000000000000000000000000000000000000000000600052604160045260246000fd5b61210682612004565b810181811067ffffffffffffffff82111715612125576121246120ce565b5b80604052505050565b6000612138611c88565b905061214482826120fd565b919050565b600067ffffffffffffffff821115612164576121636120ce565b5b61216d82612004565b9050602081019050919050565b82818337600083830152505050565b600061219c61219784612149565b61212e565b9050828152602081018484840111156121b8576121b76120c9565b5b6121c384828561217a565b509392505050565b600082601f8301126121e0576121df6120c4565b5b81356121f0848260208601612189565b91505092915050565b600080604083850312156122105761220f611c92565b5b600061221e85828601611cbd565b925050602083013567ffffffffffffffff81111561223f5761223e611c97565b5b61224b858286016121cb565b9150509250929050565b600081905092915050565b50565b6000612270600083612255565b915061227b82612260565b600082019050919050565b600061229182612263565b9150819050919050565b6000819050919050565b60006122c06122bb6122b684611dcb565b61229b565b611dcb565b9050919050565b60006122d2826122a5565b9050919050565b60006122e4826122c7565b9050919050565b6122f4816122d9565b82525050565b600060608201905061230f6000830186611dfd565b61231c60208301856122eb565b6123296040830184611d4a565b949350505050565b60008151905061234081611cde565b92915050565b60006020828403121561235c5761235b611c92565b5b600061236a84828501612331565b91505092915050565b60006040820190506123886000830185611d4a565b6123956020830184611da1565b9392505050565b7f4e487b7100000000000000000000000000000000000000000000000000000000600052602260045260246000fd5b600060028204905060018216806123e357607f821691505b6020821081036123f6576123f561239c565b5b50919050565b60006060820190506124116000830186611dfd565b61241e6020830185611dfd565b61242b6040830184611d4a565b949350505050565b60008151905061244281611ca6565b92915050565b60006020828403121561245e5761245d611c92565b5b600061246c84828501612433565b91505092915050565b7f4e487b7100000000000000000000000000000000000000000000000000000000600052601160045260246000fd5b60006124af82611c9c565b91507fffffffffffffffffffffffffffffffffffffffffffffffffffffffffffffffff82036124e1576124e0612475565b5b600182019050919050565b60008190508160005260206000209050919050565b60006020601f8301049050919050565b600082821b905092915050565b60006008830261254e7fffffffffffffffffffffffffffffffffffffffffffffffffffffffffffffffff82612511565b6125588683612511565b95508019841693508086168417925050509392505050565b600061258b61258661258184611c9c565b61229b565b611c9c565b9050919050565b6000819050919050565b6125a583612570565b6125b96125b182612592565b84845461251e565b825550505050565b600090565b6125ce6125c1565b6125d981848461259c565b505050565b5b818110156125fd576125f26000826125c6565b6001810190506125df565b5050565b601f82111561264257612613816124ec565b61261c84612501565b8101602085101561262b578190505b61263f61263785612501565b8301826125de565b50505b505050565b600082821c905092915050565b600061266560001984600802612647565b1980831691505092915050565b600061267e8383612654565b9150826002028217905092915050565b61269782611fbe565b67ffffffffffffffff8111156126b0576126af6120ce565b5b6126ba82546123cb565b6126c5828285612601565b600060209050601f8311600181146126f857600084156126e6578287015190505b6126f08582612672565b865550612758565b601f198416612706866124ec565b60005b8281101561272e57848901518255600182019150602085019450602081019050612709565b8683101561274b5784890151612747601f891682612654565b8355505b6001600288020188555050505b505050505050565b60006060820190506127756000830186611d4a565b6127826020830185611d4a565b61278f6040830184611dfd565b949350505050565b60006040820190506127ac6000830185611d4a565b81810360208301526127be8184612015565b9050939250505056fea264697066735822122029f8b321a5a38d4c92c341ac40062cbd0acb0e17a701d30923190eadcd538bfa64736f6c63430008110033",
  "devdoc": {
    "author": "alessandromaci",
    "details": "This contract has been developed to facilitate escrowed transactions between parties.",
    "kind": "dev",
    "methods": {
      "addEvidence(uint256,bytes)": {
        "params": {
          "agreementId": "The ID of the agreement.",
          "evidenceCID": "The content identifier for the evidence."
        }
      },
      "agreementIsLocked(uint256)": {
        "params": {
          "agreementId": "The ID of the agreement."
        },
        "returns": {
          "_0": "bool True if the agreement is locked, otherwise false."
        }
      },
      "buyerReclaims(uint256)": {
        "params": {
          "agreementId": "The ID of the agreement."
        }
      },
      "buyerRejectsReceipt(uint256)": {
        "params": {
          "agreementId": "The ID of the agreement."
        }
      },
      "confirmReceived(uint256)": {
        "params": {
          "agreementId": "The ID of the agreement."
        }
      },
      "createAgreement(address,address,uint256,address)": {
        "params": {
          "buyer": "Address of the buyer.",
          "seller": "Address of the seller.",
          "tokenAddress": "Address of the ERC20 token (use ethereum for ETH).",
          "value": "Amount to be escrowed."
        }
      },
      "executeDecision(uint256,bool)": {
        "params": {
          "agreementId": "The ID of the agreement.",
          "inFavorOfBuyer": "Boolean indicating if the decision is in favor of the buyer."
        }
      },
      "sellerConfirmsAgreement(uint256)": {
        "params": {
          "agreementId": "The ID of the agreement."
        }
      }
    },
    "title": "Escrow Contract",
    "version": 1
  },
  "userdoc": {
    "kind": "user",
    "methods": {
      "addEvidence(uint256,bytes)": {
        "notice": "Add evidence to an agreement."
      },
      "agreementIsLocked(uint256)": {
        "notice": "Check if an agreement is locked."
      },
      "buyerReclaims(uint256)": {
        "notice": "Reclaim funds as the buyer."
      },
      "buyerRejectsReceipt(uint256)": {
        "notice": "Reject the receipt as a buyer."
      },
      "confirmReceived(uint256)": {
        "notice": "Confirm receipt of the item/service."
      },
      "createAgreement(address,address,uint256,address)": {
        "notice": "Creates an agreement between a buyer and seller."
      },
      "executeDecision(uint256,bool)": {
        "notice": "Execute the decision of the judge."
      },
      "sellerConfirmsAgreement(uint256)": {
        "notice": "Confirm an agreement as the seller."
      }
    },
    "notice": "This contract manages trustless escrows for buyer-seller transactions.",
    "version": 1
  },
  "storageLayout": {
    "storage": [
      {
        "astId": 49,
        "contract": "contracts/EscrowContract.sol:EscrowContract",
        "label": "numAgreements",
        "offset": 0,
        "slot": "0",
        "type": "t_uint256"
      },
      {
        "astId": 51,
        "contract": "contracts/EscrowContract.sol:EscrowContract",
        "label": "judge",
        "offset": 0,
        "slot": "1",
        "type": "t_address"
      },
      {
        "astId": 54,
        "contract": "contracts/EscrowContract.sol:EscrowContract",
        "label": "ethereum",
        "offset": 0,
        "slot": "2",
        "type": "t_address"
      },
      {
        "astId": 59,
        "contract": "contracts/EscrowContract.sol:EscrowContract",
        "label": "agreements",
        "offset": 0,
        "slot": "3",
        "type": "t_mapping(t_uint256,t_struct(Agreement)47_storage)"
      },
      {
        "astId": 64,
        "contract": "contracts/EscrowContract.sol:EscrowContract",
        "label": "agreementIdsByParticipant",
        "offset": 0,
        "slot": "4",
        "type": "t_mapping(t_address,t_array(t_uint256)dyn_storage)"
      }
    ],
    "types": {
      "t_address": {
        "encoding": "inplace",
        "label": "address",
        "numberOfBytes": "20"
      },
      "t_address_payable": {
        "encoding": "inplace",
        "label": "address payable",
        "numberOfBytes": "20"
      },
      "t_array(t_uint256)dyn_storage": {
        "base": "t_uint256",
        "encoding": "dynamic_array",
        "label": "uint256[]",
        "numberOfBytes": "32"
      },
      "t_bool": {
        "encoding": "inplace",
        "label": "bool",
        "numberOfBytes": "1"
      },
      "t_bytes_storage": {
        "encoding": "bytes",
        "label": "bytes",
        "numberOfBytes": "32"
      },
      "t_enum(Status)31": {
        "encoding": "inplace",
        "label": "enum EscrowContract.Status",
        "numberOfBytes": "1"
      },
      "t_mapping(t_address,t_array(t_uint256)dyn_storage)": {
        "encoding": "mapping",
        "key": "t_address",
        "label": "mapping(address => uint256[])",
        "numberOfBytes": "32",
        "value": "t_array(t_uint256)dyn_storage"
      },
      "t_mapping(t_uint256,t_struct(Agreement)47_storage)": {
        "encoding": "mapping",
        "key": "t_uint256",
        "label": "mapping(uint256 => struct EscrowContract.Agreement)",
        "numberOfBytes": "32",
        "value": "t_struct(Agreement)47_storage"
      },
      "t_struct(Agreement)47_storage": {
        "encoding": "inplace",
        "label": "struct EscrowContract.Agreement",
        "members": [
          {
            "astId": 33,
            "contract": "contracts/EscrowContract.sol:EscrowContract",
            "label": "buyer",
            "offset": 0,
            "slot": "0",
            "type": "t_address_payable"
          },
          {
            "astId": 35,
            "contract": "contracts/EscrowContract.sol:EscrowContract",
            "label": "seller",
            "offset": 0,
            "slot": "1",
            "type": "t_address_payable"
          },
          {
            "astId": 37,
            "contract": "contracts/EscrowContract.sol:EscrowContract",
            "label": "value",
            "offset": 0,
            "slot": "2",
            "type": "t_uint256"
          },
          {
            "astId": 39,
            "contract": "contracts/EscrowContract.sol:EscrowContract",
            "label": "tokenAddress",
            "offset": 0,
            "slot": "3",
            "type": "t_address"
          },
          {
            "astId": 41,
            "contract": "contracts/EscrowContract.sol:EscrowContract",
            "label": "sellerConfirmedAgreement",
            "offset": 20,
            "slot": "3",
            "type": "t_bool"
          },
          {
            "astId": 44,
            "contract": "contracts/EscrowContract.sol:EscrowContract",
            "label": "status",
            "offset": 21,
            "slot": "3",
            "type": "t_enum(Status)31"
          },
          {
            "astId": 46,
            "contract": "contracts/EscrowContract.sol:EscrowContract",
            "label": "evidenceCID",
            "offset": 0,
            "slot": "4",
            "type": "t_bytes_storage"
          }
        ],
        "numberOfBytes": "160"
      },
      "t_uint256": {
        "encoding": "inplace",
        "label": "uint256",
        "numberOfBytes": "32"
      }
    }
  }
}