{
  "address": "0xf0B1c1B99f2D9c94A57eC2DA45915Cf1fD3E47a7",
  "abi": [
    {
      "inputs": [
        {
          "internalType": "address",
          "name": "_judge",
          "type": "address"
        }
      ],
      "stateMutability": "nonpayable",
      "type": "constructor"
    },
    {
      "inputs": [],
      "name": "AgreementLocked",
      "type": "error"
    },
    {
      "inputs": [],
      "name": "AgreementNotLocked",
      "type": "error"
    },
    {
      "inputs": [],
      "name": "InsufficientPayment",
      "type": "error"
    },
    {
      "inputs": [],
      "name": "NoPendingResolution",
      "type": "error"
    },
    {
      "inputs": [],
      "name": "NotABuyer",
      "type": "error"
    },
    {
      "inputs": [],
      "name": "NotAJudge",
      "type": "error"
    },
    {
      "inputs": [],
      "name": "NotAParticipant",
      "type": "error"
    },
    {
      "inputs": [],
      "name": "NotASeller",
      "type": "error"
    },
    {
      "inputs": [],
      "name": "NotSameBuyerAndSeller",
      "type": "error"
    },
    {
      "inputs": [],
      "name": "TransferFailed",
      "type": "error"
    },
    {
      "anonymous": false,
      "inputs": [
        {
          "indexed": false,
          "internalType": "uint256",
          "name": "agreementId",
          "type": "uint256"
        }
      ],
      "name": "AgreementConfirmed",
      "type": "event"
    },
    {
      "anonymous": false,
      "inputs": [
        {
          "indexed": false,
          "internalType": "uint256",
          "name": "agreementId",
          "type": "uint256"
        },
        {
          "indexed": true,
          "internalType": "address",
          "name": "buyer",
          "type": "address"
        },
        {
          "indexed": true,
          "internalType": "address",
          "name": "seller",
          "type": "address"
        },
        {
          "indexed": false,
          "internalType": "uint256",
          "name": "value",
          "type": "uint256"
        },
        {
          "indexed": false,
          "internalType": "address",
          "name": "tokenAddress",
          "type": "address"
        },
        {
          "indexed": false,
          "internalType": "bytes",
          "name": "evidenceCID",
          "type": "bytes"
        }
      ],
      "name": "AgreementCreated",
      "type": "event"
    },
    {
      "anonymous": false,
      "inputs": [
        {
          "indexed": false,
          "internalType": "uint256",
          "name": "agreementId",
          "type": "uint256"
        }
      ],
      "name": "BuyerRejectedReceipt",
      "type": "event"
    },
    {
      "anonymous": false,
      "inputs": [
        {
          "indexed": false,
          "internalType": "uint256",
          "name": "agreementId",
          "type": "uint256"
        },
        {
          "indexed": false,
          "internalType": "bool",
          "name": "inFavorOfBuyer",
          "type": "bool"
        }
      ],
      "name": "DecisionExecuted",
      "type": "event"
    },
    {
      "anonymous": false,
      "inputs": [
        {
          "indexed": false,
          "internalType": "uint256",
          "name": "agreementId",
          "type": "uint256"
        },
        {
          "indexed": false,
          "internalType": "bytes",
          "name": "evidenceCID",
          "type": "bytes"
        }
      ],
      "name": "EvidenceAdded",
      "type": "event"
    },
    {
      "anonymous": false,
      "inputs": [
        {
          "indexed": false,
          "internalType": "uint256",
          "name": "agreementId",
          "type": "uint256"
        }
      ],
      "name": "FundsReclaimed",
      "type": "event"
    },
    {
      "anonymous": false,
      "inputs": [
        {
          "indexed": false,
          "internalType": "uint256",
          "name": "agreementId",
          "type": "uint256"
        }
      ],
      "name": "ReceiptConfirmed",
      "type": "event"
    },
    {
      "inputs": [
        {
          "internalType": "uint256",
          "name": "agreementId",
          "type": "uint256"
        },
        {
          "internalType": "bytes",
          "name": "evidenceCID",
          "type": "bytes"
        }
      ],
      "name": "addEvidence",
      "outputs": [],
      "stateMutability": "nonpayable",
      "type": "function"
    },
    {
      "inputs": [
        {
          "internalType": "address",
          "name": "",
          "type": "address"
        },
        {
          "internalType": "uint256",
          "name": "",
          "type": "uint256"
        }
      ],
      "name": "agreementIdsByParticipant",
      "outputs": [
        {
          "internalType": "uint256",
          "name": "",
          "type": "uint256"
        }
      ],
      "stateMutability": "view",
      "type": "function"
    },
    {
      "inputs": [
        {
          "internalType": "uint256",
          "name": "agreementId",
          "type": "uint256"
        }
      ],
      "name": "agreementIsLocked",
      "outputs": [
        {
          "internalType": "bool",
          "name": "",
          "type": "bool"
        }
      ],
      "stateMutability": "view",
      "type": "function"
    },
    {
      "inputs": [
        {
          "internalType": "uint256",
          "name": "",
          "type": "uint256"
        }
      ],
      "name": "agreements",
      "outputs": [
        {
          "internalType": "address payable",
          "name": "buyer",
          "type": "address"
        },
        {
          "internalType": "address payable",
          "name": "seller",
          "type": "address"
        },
        {
          "internalType": "uint256",
          "name": "value",
          "type": "uint256"
        },
        {
          "internalType": "address",
          "name": "tokenAddress",
          "type": "address"
        },
        {
          "internalType": "bool",
          "name": "sellerConfirmedAgreement",
          "type": "bool"
        },
        {
          "internalType": "enum EscrowContract.Status",
          "name": "status",
          "type": "uint8"
        },
        {
          "internalType": "bytes",
          "name": "evidenceCID",
          "type": "bytes"
        }
      ],
      "stateMutability": "view",
      "type": "function"
    },
    {
      "inputs": [
        {
          "internalType": "uint256",
          "name": "agreementId",
          "type": "uint256"
        }
      ],
      "name": "buyerReclaims",
      "outputs": [],
      "stateMutability": "nonpayable",
      "type": "function"
    },
    {
      "inputs": [
        {
          "internalType": "uint256",
          "name": "agreementId",
          "type": "uint256"
        }
      ],
      "name": "buyerRejectsReceipt",
      "outputs": [],
      "stateMutability": "nonpayable",
      "type": "function"
    },
    {
      "inputs": [
        {
          "internalType": "uint256",
          "name": "agreementId",
          "type": "uint256"
        }
      ],
      "name": "confirmReceived",
      "outputs": [],
      "stateMutability": "nonpayable",
      "type": "function"
    },
    {
      "inputs": [
        {
          "internalType": "address payable",
          "name": "buyer",
          "type": "address"
        },
        {
          "internalType": "address payable",
          "name": "seller",
          "type": "address"
        },
        {
          "internalType": "uint256",
          "name": "value",
          "type": "uint256"
        },
        {
          "internalType": "address",
          "name": "tokenAddress",
          "type": "address"
        },
        {
          "internalType": "bytes",
          "name": "evidenceCID",
          "type": "bytes"
        }
      ],
      "name": "createAgreement",
      "outputs": [],
      "stateMutability": "payable",
      "type": "function"
    },
    {
      "inputs": [
        {
          "internalType": "uint256",
          "name": "agreementId",
          "type": "uint256"
        },
        {
          "internalType": "bool",
          "name": "inFavorOfBuyer",
          "type": "bool"
        }
      ],
      "name": "executeDecision",
      "outputs": [],
      "stateMutability": "nonpayable",
      "type": "function"
    },
    {
      "inputs": [],
      "name": "judge",
      "outputs": [
        {
          "internalType": "address",
          "name": "",
          "type": "address"
        }
      ],
      "stateMutability": "view",
      "type": "function"
    },
    {
      "inputs": [],
      "name": "numAgreements",
      "outputs": [
        {
          "internalType": "uint256",
          "name": "",
          "type": "uint256"
        }
      ],
      "stateMutability": "view",
      "type": "function"
    },
    {
      "inputs": [
        {
          "internalType": "uint256",
          "name": "agreementId",
          "type": "uint256"
        }
      ],
      "name": "sellerConfirmsAgreement",
      "outputs": [],
      "stateMutability": "nonpayable",
      "type": "function"
    }
  ],
  "transactionHash": "0xa56b2db15d80efcdfac9b3e23abe9d7fd0df76cc3c95719619cbfc1a873d6367",
  "args": [
    "0xBC3F74CECF1fA8270A6FAE935e974a5a9570D054"
  ],
  "numDeployments": 1,
  "solcInputHash": "4d24eab48c066f3d7373a2c588160d7c",
  "bytecode": "0x60806040526001600260006101000a81548173ffffffffffffffffffffffffffffffffffffffff021916908373ffffffffffffffffffffffffffffffffffffffff1602179055503480156200005357600080fd5b50604051620029a3380380620029a383398181016040528101906200007991906200012b565b80600160006101000a81548173ffffffffffffffffffffffffffffffffffffffff021916908373ffffffffffffffffffffffffffffffffffffffff160217905550506200015d565b600080fd5b600073ffffffffffffffffffffffffffffffffffffffff82169050919050565b6000620000f382620000c6565b9050919050565b6200010581620000e6565b81146200011157600080fd5b50565b6000815190506200012581620000fa565b92915050565b600060208284031215620001445762000143620000c1565b5b6000620001548482850162000114565b91505092915050565b612836806200016d6000396000f3fe6080604052600436106100a75760003560e01c8063573255f411610064578063573255f4146101b85780637ae169b7146101e357806399b543a414610220578063a9b5b86a1461023c578063bd14de9614610265578063db1c7bab146102a8576100a7565b8063041635e0146100ac57806324d46dc1146100d557806327dac36d1461010057806337ac3d9e146101295780634ea342ab1461015257806355ed6be61461018f575b600080fd5b3480156100b857600080fd5b506100d360048036038101906100ce9190611cfe565b6102d1565b005b3480156100e157600080fd5b506100ea61085e565b6040516100f79190611d4d565b60405180910390f35b34801561010c57600080fd5b5061012760048036038101906101229190611d68565b610864565b005b34801561013557600080fd5b50610150600480360381019061014b9190611d68565b610bc6565b005b34801561015e57600080fd5b5061017960048036038101906101749190611d68565b610f42565b6040516101869190611da4565b60405180910390f35b34801561019b57600080fd5b506101b660048036038101906101b19190611d68565b611166565b005b3480156101c457600080fd5b506101cd61125e565b6040516101da9190611e00565b60405180910390f35b3480156101ef57600080fd5b5061020a60048036038101906102059190611e47565b611284565b6040516102179190611d4d565b60405180910390f35b61023a6004803603810190610235919061200b565b6112b5565b005b34801561024857600080fd5b50610263600480360381019061025e9190611d68565b6118e2565b005b34801561027157600080fd5b5061028c60048036038101906102879190611d68565b6119ea565b60405161029f97969594939291906121a7565b60405180910390f35b3480156102b457600080fd5b506102cf60048036038101906102ca919061221d565b611b2e565b005b6000600360008481526020019081526020016000209050600160009054906101000a900473ffffffffffffffffffffffffffffffffffffffff1673ffffffffffffffffffffffffffffffffffffffff163373ffffffffffffffffffffffffffffffffffffffff161461036f576040517f34d83fc100000000000000000000000000000000000000000000000000000000815260040160405180910390fd5b60026005811115610383576103826120b1565b5b8160030160159054906101000a900460ff1660058111156103a7576103a66120b1565b5b146103de576040517fe85bd1c800000000000000000000000000000000000000000000000000000000815260040160405180910390fd5b816103ea5760046103ed565b60035b8160030160156101000a81548160ff02191690836005811115610413576104126120b1565b5b02179055506000821561060657600260009054906101000a900473ffffffffffffffffffffffffffffffffffffffff1673ffffffffffffffffffffffffffffffffffffffff168260030160009054906101000a900473ffffffffffffffffffffffffffffffffffffffff1673ffffffffffffffffffffffffffffffffffffffff1603610532578160000160009054906101000a900473ffffffffffffffffffffffffffffffffffffffff1673ffffffffffffffffffffffffffffffffffffffff1682600201546040516104e5906122aa565b60006040518083038185875af1925050503d8060008114610522576040519150601f19603f3d011682016040523d82523d6000602084013e610527565b606091505b505080915050610601565b8160030160009054906101000a900473ffffffffffffffffffffffffffffffffffffffff1673ffffffffffffffffffffffffffffffffffffffff166323b872dd308460000160009054906101000a900473ffffffffffffffffffffffffffffffffffffffff1685600201546040518463ffffffff1660e01b81526004016105bb9392919061231e565b6020604051808303816000875af11580156105da573d6000803e3d6000fd5b505050506040513d601f19601f820116820180604052508101906105fe919061236a565b90505b6107e8565b600260009054906101000a900473ffffffffffffffffffffffffffffffffffffffff1673ffffffffffffffffffffffffffffffffffffffff168260030160009054906101000a900473ffffffffffffffffffffffffffffffffffffffff1673ffffffffffffffffffffffffffffffffffffffff1603610718578160010160009054906101000a900473ffffffffffffffffffffffffffffffffffffffff1673ffffffffffffffffffffffffffffffffffffffff1682600201546040516106cb906122aa565b60006040518083038185875af1925050503d8060008114610708576040519150601f19603f3d011682016040523d82523d6000602084013e61070d565b606091505b5050809150506107e7565b8160030160009054906101000a900473ffffffffffffffffffffffffffffffffffffffff1673ffffffffffffffffffffffffffffffffffffffff166323b872dd308460010160009054906101000a900473ffffffffffffffffffffffffffffffffffffffff1685600201546040518463ffffffff1660e01b81526004016107a19392919061231e565b6020604051808303816000875af11580156107c0573d6000803e3d6000fd5b505050506040513d601f19601f820116820180604052508101906107e4919061236a565b90505b5b8061081f576040517f90b8ec1800000000000000000000000000000000000000000000000000000000815260040160405180910390fd5b7f28122ca6dfc3042708a6ff54619e90e9a38047da35fcf5a8ac4e84cc3716e4a58484604051610850929190612397565b60405180910390a150505050565b60005481565b60006003600083815260200190815260200160002090508060000160009054906101000a900473ffffffffffffffffffffffffffffffffffffffff1673ffffffffffffffffffffffffffffffffffffffff163373ffffffffffffffffffffffffffffffffffffffff1614610904576040517ffe7a9eab00000000000000000000000000000000000000000000000000000000815260040160405180910390fd5b61090d82610f42565b610943576040517f2398b84700000000000000000000000000000000000000000000000000000000815260040160405180910390fd5b60058160030160156101000a81548160ff0219169083600581111561096b5761096a6120b1565b5b02179055506000600260009054906101000a900473ffffffffffffffffffffffffffffffffffffffff1673ffffffffffffffffffffffffffffffffffffffff168260030160009054906101000a900473ffffffffffffffffffffffffffffffffffffffff1673ffffffffffffffffffffffffffffffffffffffff1603610a84578160010160009054906101000a900473ffffffffffffffffffffffffffffffffffffffff1673ffffffffffffffffffffffffffffffffffffffff168260020154604051610a37906122aa565b60006040518083038185875af1925050503d8060008114610a74576040519150601f19603f3d011682016040523d82523d6000602084013e610a79565b606091505b505080915050610b53565b8160030160009054906101000a900473ffffffffffffffffffffffffffffffffffffffff1673ffffffffffffffffffffffffffffffffffffffff166323b872dd308460010160009054906101000a900473ffffffffffffffffffffffffffffffffffffffff1685600201546040518463ffffffff1660e01b8152600401610b0d9392919061231e565b6020604051808303816000875af1158015610b2c573d6000803e3d6000fd5b505050506040513d601f19601f82011682018060405250810190610b50919061236a565b90505b80610b8a576040517f90b8ec1800000000000000000000000000000000000000000000000000000000815260040160405180910390fd5b7f900a2104c9fe6d9ec7b20dc2b6f3a623600abd02751b4c5dcc71d5aa4764c4ac83604051610bb99190611d4d565b60405180910390a1505050565b60006003600083815260200190815260200160002090508060000160009054906101000a900473ffffffffffffffffffffffffffffffffffffffff1673ffffffffffffffffffffffffffffffffffffffff163373ffffffffffffffffffffffffffffffffffffffff1614610c66576040517ffe7a9eab00000000000000000000000000000000000000000000000000000000815260040160405180910390fd5b610c6f82610f42565b80610c8857508060030160149054906101000a900460ff165b15610cbf576040517f8f684ec400000000000000000000000000000000000000000000000000000000815260040160405180910390fd5b6000600260009054906101000a900473ffffffffffffffffffffffffffffffffffffffff1673ffffffffffffffffffffffffffffffffffffffff168260030160009054906101000a900473ffffffffffffffffffffffffffffffffffffffff1673ffffffffffffffffffffffffffffffffffffffff1603610dd3578160000160009054906101000a900473ffffffffffffffffffffffffffffffffffffffff1673ffffffffffffffffffffffffffffffffffffffff168260020154604051610d86906122aa565b60006040518083038185875af1925050503d8060008114610dc3576040519150601f19603f3d011682016040523d82523d6000602084013e610dc8565b606091505b505080915050610ea2565b8160030160009054906101000a900473ffffffffffffffffffffffffffffffffffffffff1673ffffffffffffffffffffffffffffffffffffffff166323b872dd308460000160009054906101000a900473ffffffffffffffffffffffffffffffffffffffff1685600201546040518463ffffffff1660e01b8152600401610e5c9392919061231e565b6020604051808303816000875af1158015610e7b573d6000803e3d6000fd5b505050506040513d601f19601f82011682018060405250810190610e9f919061236a565b90505b80610ed9576040517f90b8ec1800000000000000000000000000000000000000000000000000000000815260040160405180910390fd5b60018260030160156101000a81548160ff02191690836005811115610f0157610f006120b1565b5b02179055507f6246f936423733335c7889317bcefc2fe71363b2b87691f815e8367851010f2e83604051610f359190611d4d565b60405180910390a1505050565b600080600360008481526020019081526020016000206040518060e00160405290816000820160009054906101000a900473ffffffffffffffffffffffffffffffffffffffff1673ffffffffffffffffffffffffffffffffffffffff1673ffffffffffffffffffffffffffffffffffffffff1681526020016001820160009054906101000a900473ffffffffffffffffffffffffffffffffffffffff1673ffffffffffffffffffffffffffffffffffffffff1673ffffffffffffffffffffffffffffffffffffffff168152602001600282015481526020016003820160009054906101000a900473ffffffffffffffffffffffffffffffffffffffff1673ffffffffffffffffffffffffffffffffffffffff1673ffffffffffffffffffffffffffffffffffffffff1681526020016003820160149054906101000a900460ff161515151581526020016003820160159054906101000a900460ff1660058111156110af576110ae6120b1565b5b60058111156110c1576110c06120b1565b5b81526020016004820180546110d5906123ef565b80601f0160208091040260200160405190810160405280929190818152602001828054611101906123ef565b801561114e5780601f106111235761010080835404028352916020019161114e565b820191906000526020600020905b81548152906001019060200180831161113157829003601f168201915b50505050508152505090508060800151915050919050565b60006003600083815260200190815260200160002090508060010160009054906101000a900473ffffffffffffffffffffffffffffffffffffffff1673ffffffffffffffffffffffffffffffffffffffff163373ffffffffffffffffffffffffffffffffffffffff1614611206576040517ffd75e33d00000000000000000000000000000000000000000000000000000000815260040160405180910390fd5b60018160030160146101000a81548160ff0219169083151502179055507f586f0ab5ab4951d2353ccca33fe31a4c0369ef4b0fb8062c9319712a404d6643826040516112529190611d4d565b60405180910390a15050565b600160009054906101000a900473ffffffffffffffffffffffffffffffffffffffff1681565b600460205281600052604060002081815481106112a057600080fd5b90600052602060002001600091509150505481565b8473ffffffffffffffffffffffffffffffffffffffff163373ffffffffffffffffffffffffffffffffffffffff161461131a576040517ffe7a9eab00000000000000000000000000000000000000000000000000000000815260040160405180910390fd5b8373ffffffffffffffffffffffffffffffffffffffff163373ffffffffffffffffffffffffffffffffffffffff160361137f576040517f283c739900000000000000000000000000000000000000000000000000000000815260040160405180910390fd5b600260009054906101000a900473ffffffffffffffffffffffffffffffffffffffff1673ffffffffffffffffffffffffffffffffffffffff168273ffffffffffffffffffffffffffffffffffffffff161480156113dc5750823414155b15611413576040517fcd1c886700000000000000000000000000000000000000000000000000000000815260040160405180910390fd5b600260009054906101000a900473ffffffffffffffffffffffffffffffffffffffff1673ffffffffffffffffffffffffffffffffffffffff168273ffffffffffffffffffffffffffffffffffffffff161461159d578173ffffffffffffffffffffffffffffffffffffffff166323b872dd3330866040518463ffffffff1660e01b81526004016114a593929190612420565b6020604051808303816000875af11580156114c4573d6000803e3d6000fd5b505050506040513d601f19601f820116820180604052508101906114e8919061236a565b50828273ffffffffffffffffffffffffffffffffffffffff166370a08231306040518263ffffffff1660e01b81526004016115239190611e00565b602060405180830381865afa158015611540573d6000803e3d6000fd5b505050506040513d601f19601f82011682018060405250810190611564919061246c565b101561159c576040517fcd1c886700000000000000000000000000000000000000000000000000000000815260040160405180910390fd5b5b60006040518060e001604052808773ffffffffffffffffffffffffffffffffffffffff1681526020018673ffffffffffffffffffffffffffffffffffffffff1681526020018581526020018473ffffffffffffffffffffffffffffffffffffffff16815260200160001515815260200160006005811115611621576116206120b1565b5b81526020018381525090506000806000815480929190611640906124c8565b919050559050816003600083815260200190815260200160002060008201518160000160006101000a81548173ffffffffffffffffffffffffffffffffffffffff021916908373ffffffffffffffffffffffffffffffffffffffff16021790555060208201518160010160006101000a81548173ffffffffffffffffffffffffffffffffffffffff021916908373ffffffffffffffffffffffffffffffffffffffff1602179055506040820151816002015560608201518160030160006101000a81548173ffffffffffffffffffffffffffffffffffffffff021916908373ffffffffffffffffffffffffffffffffffffffff16021790555060808201518160030160146101000a81548160ff02191690831515021790555060a08201518160030160156101000a81548160ff02191690836005811115611784576117836120b1565b5b021790555060c082015181600401908161179e91906126b2565b50905050600460008873ffffffffffffffffffffffffffffffffffffffff1673ffffffffffffffffffffffffffffffffffffffff168152602001908152602001600020819080600181540180825580915050600190039060005260206000200160009091909190915055600460008773ffffffffffffffffffffffffffffffffffffffff1673ffffffffffffffffffffffffffffffffffffffff1681526020019081526020016000208190806001815401808255809150506001900390600052602060002001600090919091909150558573ffffffffffffffffffffffffffffffffffffffff168773ffffffffffffffffffffffffffffffffffffffff167f788e3996f66c3c761ac189f378fd1abb6a6c90c1987164a5b064a0eaddbc4f1f838888886040516118d19493929190612784565b60405180910390a350505050505050565b60006003600083815260200190815260200160002090508060000160009054906101000a900473ffffffffffffffffffffffffffffffffffffffff1673ffffffffffffffffffffffffffffffffffffffff163373ffffffffffffffffffffffffffffffffffffffff1614611982576040517ffe7a9eab00000000000000000000000000000000000000000000000000000000815260040160405180910390fd5b60028160030160156101000a81548160ff021916908360058111156119aa576119a96120b1565b5b02179055507f445df36edc8e2748c3e5aca8b58b44b76c3ec3582f24d8ab628d98372303c827826040516119de9190611d4d565b60405180910390a15050565b60036020528060005260406000206000915090508060000160009054906101000a900473ffffffffffffffffffffffffffffffffffffffff16908060010160009054906101000a900473ffffffffffffffffffffffffffffffffffffffff16908060020154908060030160009054906101000a900473ffffffffffffffffffffffffffffffffffffffff16908060030160149054906101000a900460ff16908060030160159054906101000a900460ff1690806004018054611aab906123ef565b80601f0160208091040260200160405190810160405280929190818152602001828054611ad7906123ef565b8015611b245780601f10611af957610100808354040283529160200191611b24565b820191906000526020600020905b815481529060010190602001808311611b0757829003601f168201915b5050505050905087565b60006003600084815260200190815260200160002090508060000160009054906101000a900473ffffffffffffffffffffffffffffffffffffffff1673ffffffffffffffffffffffffffffffffffffffff163373ffffffffffffffffffffffffffffffffffffffff1614158015611bf557508060010160009054906101000a900473ffffffffffffffffffffffffffffffffffffffff1673ffffffffffffffffffffffffffffffffffffffff163373ffffffffffffffffffffffffffffffffffffffff1614155b15611c2c576040517f179e806d00000000000000000000000000000000000000000000000000000000815260040160405180910390fd5b81816004019081611c3d91906126b2565b507f770c205c6ddbc7f96a5e1d0e72eb637292aab9021be37bf83daeb33c0fe1e61f8383604051611c6f9291906127d0565b60405180910390a1505050565b6000604051905090565b600080fd5b600080fd5b6000819050919050565b611ca381611c90565b8114611cae57600080fd5b50565b600081359050611cc081611c9a565b92915050565b60008115159050919050565b611cdb81611cc6565b8114611ce657600080fd5b50565b600081359050611cf881611cd2565b92915050565b60008060408385031215611d1557611d14611c86565b5b6000611d2385828601611cb1565b9250506020611d3485828601611ce9565b9150509250929050565b611d4781611c90565b82525050565b6000602082019050611d626000830184611d3e565b92915050565b600060208284031215611d7e57611d7d611c86565b5b6000611d8c84828501611cb1565b91505092915050565b611d9e81611cc6565b82525050565b6000602082019050611db96000830184611d95565b92915050565b600073ffffffffffffffffffffffffffffffffffffffff82169050919050565b6000611dea82611dbf565b9050919050565b611dfa81611ddf565b82525050565b6000602082019050611e156000830184611df1565b92915050565b611e2481611ddf565b8114611e2f57600080fd5b50565b600081359050611e4181611e1b565b92915050565b60008060408385031215611e5e57611e5d611c86565b5b6000611e6c85828601611e32565b9250506020611e7d85828601611cb1565b9150509250929050565b6000611e9282611dbf565b9050919050565b611ea281611e87565b8114611ead57600080fd5b50565b600081359050611ebf81611e99565b92915050565b600080fd5b600080fd5b6000601f19601f8301169050919050565b7f4e487b7100000000000000000000000000000000000000000000000000000000600052604160045260246000fd5b611f1882611ecf565b810181811067ffffffffffffffff82111715611f3757611f36611ee0565b5b80604052505050565b6000611f4a611c7c565b9050611f568282611f0f565b919050565b600067ffffffffffffffff821115611f7657611f75611ee0565b5b611f7f82611ecf565b9050602081019050919050565b82818337600083830152505050565b6000611fae611fa984611f5b565b611f40565b905082815260208101848484011115611fca57611fc9611eca565b5b611fd5848285611f8c565b509392505050565b600082601f830112611ff257611ff1611ec5565b5b8135612002848260208601611f9b565b91505092915050565b600080600080600060a0868803121561202757612026611c86565b5b600061203588828901611eb0565b955050602061204688828901611eb0565b945050604061205788828901611cb1565b935050606061206888828901611e32565b925050608086013567ffffffffffffffff81111561208957612088611c8b565b5b61209588828901611fdd565b9150509295509295909350565b6120ab81611e87565b82525050565b7f4e487b7100000000000000000000000000000000000000000000000000000000600052602160045260246000fd5b600681106120f1576120f06120b1565b5b50565b6000819050612102826120e0565b919050565b6000612112826120f4565b9050919050565b61212281612107565b82525050565b600081519050919050565b600082825260208201905092915050565b60005b83811015612162578082015181840152602081019050612147565b60008484015250505050565b600061217982612128565b6121838185612133565b9350612193818560208601612144565b61219c81611ecf565b840191505092915050565b600060e0820190506121bc600083018a6120a2565b6121c960208301896120a2565b6121d66040830188611d3e565b6121e36060830187611df1565b6121f06080830186611d95565b6121fd60a0830185612119565b81810360c083015261220f818461216e565b905098975050505050505050565b6000806040838503121561223457612233611c86565b5b600061224285828601611cb1565b925050602083013567ffffffffffffffff81111561226357612262611c8b565b5b61226f85828601611fdd565b9150509250929050565b600081905092915050565b50565b6000612294600083612279565b915061229f82612284565b600082019050919050565b60006122b582612287565b9150819050919050565b6000819050919050565b60006122e46122df6122da84611dbf565b6122bf565b611dbf565b9050919050565b60006122f6826122c9565b9050919050565b6000612308826122eb565b9050919050565b612318816122fd565b82525050565b60006060820190506123336000830186611df1565b612340602083018561230f565b61234d6040830184611d3e565b949350505050565b60008151905061236481611cd2565b92915050565b6000602082840312156123805761237f611c86565b5b600061238e84828501612355565b91505092915050565b60006040820190506123ac6000830185611d3e565b6123b96020830184611d95565b9392505050565b7f4e487b7100000000000000000000000000000000000000000000000000000000600052602260045260246000fd5b6000600282049050600182168061240757607f821691505b60208210810361241a576124196123c0565b5b50919050565b60006060820190506124356000830186611df1565b6124426020830185611df1565b61244f6040830184611d3e565b949350505050565b60008151905061246681611c9a565b92915050565b60006020828403121561248257612481611c86565b5b600061249084828501612457565b91505092915050565b7f4e487b7100000000000000000000000000000000000000000000000000000000600052601160045260246000fd5b60006124d382611c90565b91507fffffffffffffffffffffffffffffffffffffffffffffffffffffffffffffffff820361250557612504612499565b5b600182019050919050565b60008190508160005260206000209050919050565b60006020601f8301049050919050565b600082821b905092915050565b6000600883026125727fffffffffffffffffffffffffffffffffffffffffffffffffffffffffffffffff82612535565b61257c8683612535565b95508019841693508086168417925050509392505050565b60006125af6125aa6125a584611c90565b6122bf565b611c90565b9050919050565b6000819050919050565b6125c983612594565b6125dd6125d5826125b6565b848454612542565b825550505050565b600090565b6125f26125e5565b6125fd8184846125c0565b505050565b5b81811015612621576126166000826125ea565b600181019050612603565b5050565b601f8211156126665761263781612510565b61264084612525565b8101602085101561264f578190505b61266361265b85612525565b830182612602565b50505b505050565b600082821c905092915050565b60006126896000198460080261266b565b1980831691505092915050565b60006126a28383612678565b9150826002028217905092915050565b6126bb82612128565b67ffffffffffffffff8111156126d4576126d3611ee0565b5b6126de82546123ef565b6126e9828285612625565b600060209050601f83116001811461271c576000841561270a578287015190505b6127148582612696565b86555061277c565b601f19841661272a86612510565b60005b828110156127525784890151825560018201915060208501945060208101905061272d565b8683101561276f578489015161276b601f891682612678565b8355505b6001600288020188555050505b505050505050565b60006080820190506127996000830187611d3e565b6127a66020830186611d3e565b6127b36040830185611df1565b81810360608301526127c5818461216e565b905095945050505050565b60006040820190506127e56000830185611d3e565b81810360208301526127f7818461216e565b9050939250505056fea2646970667358221220a5094d60405ba0f3afd3fd518fe9765ad43a061148f6b10094c048e3173a65c964736f6c63430008110033",
  "devdoc": {
    "author": "alessandromaci",
    "details": "This contract has been developed to facilitate escrowed transactions between parties.",
    "kind": "dev",
    "methods": {
      "addEvidence(uint256,bytes)": {
        "params": {
          "agreementId": "The ID of the agreement.",
          "evidenceCID": "The content identifier for the evidence."
        }
      },
      "agreementIsLocked(uint256)": {
        "params": {
          "agreementId": "The ID of the agreement."
        },
        "returns": {
          "_0": "bool True if the agreement is locked, otherwise false."
        }
      },
      "buyerReclaims(uint256)": {
        "params": {
          "agreementId": "The ID of the agreement."
        }
      },
      "buyerRejectsReceipt(uint256)": {
        "params": {
          "agreementId": "The ID of the agreement."
        }
      },
      "confirmReceived(uint256)": {
        "params": {
          "agreementId": "The ID of the agreement."
        }
      },
      "createAgreement(address,address,uint256,address,bytes)": {
        "params": {
          "buyer": "Address of the buyer.",
          "seller": "Address of the seller.",
          "tokenAddress": "Address of the ERC20 token (use ethereum for ETH).",
          "value": "Amount to be escrowed."
        }
      },
      "executeDecision(uint256,bool)": {
        "params": {
          "agreementId": "The ID of the agreement.",
          "inFavorOfBuyer": "Boolean indicating if the decision is in favor of the buyer."
        }
      },
      "sellerConfirmsAgreement(uint256)": {
        "params": {
          "agreementId": "The ID of the agreement."
        }
      }
    },
    "title": "Escrow Contract",
    "version": 1
  },
  "userdoc": {
    "kind": "user",
    "methods": {
      "addEvidence(uint256,bytes)": {
        "notice": "Add evidence to an agreement."
      },
      "agreementIsLocked(uint256)": {
        "notice": "Check if an agreement is locked."
      },
      "buyerReclaims(uint256)": {
        "notice": "Reclaim funds as the buyer."
      },
      "buyerRejectsReceipt(uint256)": {
        "notice": "Reject the receipt as a buyer."
      },
      "confirmReceived(uint256)": {
        "notice": "Confirm receipt of the item/service."
      },
      "createAgreement(address,address,uint256,address,bytes)": {
        "notice": "Creates an agreement between a buyer and seller."
      },
      "executeDecision(uint256,bool)": {
        "notice": "Execute the decision of the judge."
      },
      "sellerConfirmsAgreement(uint256)": {
        "notice": "Confirm an agreement as the seller."
      }
    },
    "notice": "This contract manages trustless escrows for buyer-seller transactions.",
    "version": 1
  },
  "storageLayout": {
    "storage": [
      {
        "astId": 49,
        "contract": "contracts/EscrowContract.sol:EscrowContract",
        "label": "numAgreements",
        "offset": 0,
        "slot": "0",
        "type": "t_uint256"
      },
      {
        "astId": 51,
        "contract": "contracts/EscrowContract.sol:EscrowContract",
        "label": "judge",
        "offset": 0,
        "slot": "1",
        "type": "t_address"
      },
      {
        "astId": 54,
        "contract": "contracts/EscrowContract.sol:EscrowContract",
        "label": "ethereum",
        "offset": 0,
        "slot": "2",
        "type": "t_address"
      },
      {
        "astId": 59,
        "contract": "contracts/EscrowContract.sol:EscrowContract",
        "label": "agreements",
        "offset": 0,
        "slot": "3",
        "type": "t_mapping(t_uint256,t_struct(Agreement)47_storage)"
      },
      {
        "astId": 64,
        "contract": "contracts/EscrowContract.sol:EscrowContract",
        "label": "agreementIdsByParticipant",
        "offset": 0,
        "slot": "4",
        "type": "t_mapping(t_address,t_array(t_uint256)dyn_storage)"
      }
    ],
    "types": {
      "t_address": {
        "encoding": "inplace",
        "label": "address",
        "numberOfBytes": "20"
      },
      "t_address_payable": {
        "encoding": "inplace",
        "label": "address payable",
        "numberOfBytes": "20"
      },
      "t_array(t_uint256)dyn_storage": {
        "base": "t_uint256",
        "encoding": "dynamic_array",
        "label": "uint256[]",
        "numberOfBytes": "32"
      },
      "t_bool": {
        "encoding": "inplace",
        "label": "bool",
        "numberOfBytes": "1"
      },
      "t_bytes_storage": {
        "encoding": "bytes",
        "label": "bytes",
        "numberOfBytes": "32"
      },
      "t_enum(Status)31": {
        "encoding": "inplace",
        "label": "enum EscrowContract.Status",
        "numberOfBytes": "1"
      },
      "t_mapping(t_address,t_array(t_uint256)dyn_storage)": {
        "encoding": "mapping",
        "key": "t_address",
        "label": "mapping(address => uint256[])",
        "numberOfBytes": "32",
        "value": "t_array(t_uint256)dyn_storage"
      },
      "t_mapping(t_uint256,t_struct(Agreement)47_storage)": {
        "encoding": "mapping",
        "key": "t_uint256",
        "label": "mapping(uint256 => struct EscrowContract.Agreement)",
        "numberOfBytes": "32",
        "value": "t_struct(Agreement)47_storage"
      },
      "t_struct(Agreement)47_storage": {
        "encoding": "inplace",
        "label": "struct EscrowContract.Agreement",
        "members": [
          {
            "astId": 33,
            "contract": "contracts/EscrowContract.sol:EscrowContract",
            "label": "buyer",
            "offset": 0,
            "slot": "0",
            "type": "t_address_payable"
          },
          {
            "astId": 35,
            "contract": "contracts/EscrowContract.sol:EscrowContract",
            "label": "seller",
            "offset": 0,
            "slot": "1",
            "type": "t_address_payable"
          },
          {
            "astId": 37,
            "contract": "contracts/EscrowContract.sol:EscrowContract",
            "label": "value",
            "offset": 0,
            "slot": "2",
            "type": "t_uint256"
          },
          {
            "astId": 39,
            "contract": "contracts/EscrowContract.sol:EscrowContract",
            "label": "tokenAddress",
            "offset": 0,
            "slot": "3",
            "type": "t_address"
          },
          {
            "astId": 41,
            "contract": "contracts/EscrowContract.sol:EscrowContract",
            "label": "sellerConfirmedAgreement",
            "offset": 20,
            "slot": "3",
            "type": "t_bool"
          },
          {
            "astId": 44,
            "contract": "contracts/EscrowContract.sol:EscrowContract",
            "label": "status",
            "offset": 21,
            "slot": "3",
            "type": "t_enum(Status)31"
          },
          {
            "astId": 46,
            "contract": "contracts/EscrowContract.sol:EscrowContract",
            "label": "evidenceCID",
            "offset": 0,
            "slot": "4",
            "type": "t_bytes_storage"
          }
        ],
        "numberOfBytes": "160"
      },
      "t_uint256": {
        "encoding": "inplace",
        "label": "uint256",
        "numberOfBytes": "32"
      }
    }
  }
}